:060000000A128A11FA2F1A
:100EDA00831603138601FF308500831203138501ED
:100EEA00860183160317880108148901C03083120A
:100EFA0003139F04C3309F05831603139F121F1207
:100F0A009F17831203130C13831603130C178312F0
:100F1A0003131F149F149F18932F942F902FF001DF
:100F2A00F1011E08F200F3017208F0007308F100E3
:100F3A007008F300F2017208F0007308F1007008FB
:100F4A00831603131E04F2007108F3007208F000FE
:100F5A007308F10083120313061086100611861116
:100F6A007108F3007008F20006300310F30CF20C5B
:100F7A00FF3E031DBA2F721CC32FC42FC52F0614A0
:100F8A007108F3007008F20006300310F30CF20C3B
:100F9A00FF3E031DCA2FF21CD32FD42FD52F861440
:100FAA007108F3007008F20006300310F30CF20C1B
:100FBA00FF3E031DDA2F721DE32FE42FE52F0615DE
:100FCA007108F3007008F20006300310F30CF20CFB
:100FDA00FF3E031DEA2FF21DF32FF42FF52F86157E
:100FEA000C138F2F0A128A110028F001F1018301D4
:060FFA000A128A116D2F9E
:08400000FF3FFF3FFF3FFF3FC0
:04400E00D22FFF3F6F
:00000001FF
