:060000000A128A11FA2F1A
:100EF4007708F1007608F00006300310F10CF00CCE
:100F0400FF3E031D7F2F7008F2007108F300721C6E
:100F14008C2F8D2F902F831203130614F21C932F02
:100F2400942F972F831203138614721D9A2F9B2FCD
:100F34009E2F831203130615F21DA12FA22FA52F96
:100F44008312031386150800831603138601FF30EA
:100F54008500831203138501860183160317880114
:100F640008148901C030831203139F04C3309F0502
:100F7400831603139F121F129F17831203130C135C
:100F8400831603130C17831203131F149F149F1843
:100F9400CC2FCD2FC92FF601F7011E08F400F5015F
:100FA4007408F6007508F7007608F500F401740873
:100FB400F6007508F7007608831603131E04F40080
:100FC4007708F5007408F6007508F7008312031318
:100FD40006108610061186110A128A117A270A123F
:100FE4008A11831203130C13C82F0A128A110028C2
:0C0FF400F601F70183010A128A11A62FF2
:08400000FF3FFF3FFF3FFF3FC0
:04400E00D22FFF3F6F
:00000001FF
